{
  "_format": "hh3-artifact-1",
  "contractName": "FundManager",
  "sourceName": "contracts/CharityTracker.sol",
  "abi": [
    {
      "inputs": [],
      "stateMutability": "nonpayable",
      "type": "constructor"
    },
    {
      "anonymous": false,
      "inputs": [
        {
          "indexed": true,
          "internalType": "address",
          "name": "donor",
          "type": "address"
        },
        {
          "indexed": false,
          "internalType": "uint256",
          "name": "amount",
          "type": "uint256"
        },
        {
          "indexed": false,
          "internalType": "uint256",
          "name": "timestamp",
          "type": "uint256"
        }
      ],
      "name": "DonationReceived",
      "type": "event"
    },
    {
      "anonymous": false,
      "inputs": [
        {
          "indexed": true,
          "internalType": "address",
          "name": "owner",
          "type": "address"
        },
        {
          "indexed": false,
          "internalType": "uint256",
          "name": "amount",
          "type": "uint256"
        },
        {
          "indexed": false,
          "internalType": "uint256",
          "name": "timestamp",
          "type": "uint256"
        }
      ],
      "name": "FundsWithdrawn",
      "type": "event"
    },
    {
      "inputs": [],
      "name": "donate",
      "outputs": [],
      "stateMutability": "payable",
      "type": "function"
    },
    {
      "inputs": [
        {
          "internalType": "uint256",
          "name": "",
          "type": "uint256"
        }
      ],
      "name": "donations",
      "outputs": [
        {
          "internalType": "address",
          "name": "donor",
          "type": "address"
        },
        {
          "internalType": "uint256",
          "name": "amount",
          "type": "uint256"
        },
        {
          "internalType": "uint256",
          "name": "timestamp",
          "type": "uint256"
        }
      ],
      "stateMutability": "view",
      "type": "function"
    },
    {
      "inputs": [],
      "name": "getDonations",
      "outputs": [
        {
          "components": [
            {
              "internalType": "address",
              "name": "donor",
              "type": "address"
            },
            {
              "internalType": "uint256",
              "name": "amount",
              "type": "uint256"
            },
            {
              "internalType": "uint256",
              "name": "timestamp",
              "type": "uint256"
            }
          ],
          "internalType": "struct FundManager.Donation[]",
          "name": "",
          "type": "tuple[]"
        }
      ],
      "stateMutability": "view",
      "type": "function"
    },
    {
      "inputs": [],
      "name": "owner",
      "outputs": [
        {
          "internalType": "address",
          "name": "",
          "type": "address"
        }
      ],
      "stateMutability": "view",
      "type": "function"
    },
    {
      "inputs": [],
      "name": "totalDonations",
      "outputs": [
        {
          "internalType": "uint256",
          "name": "",
          "type": "uint256"
        }
      ],
      "stateMutability": "view",
      "type": "function"
    },
    {
      "inputs": [
        {
          "internalType": "uint256",
          "name": "amount",
          "type": "uint256"
        }
      ],
      "name": "withdraw",
      "outputs": [],
      "stateMutability": "nonpayable",
      "type": "function"
    }
  ],
  "bytecode": "0x6080604052348015600e575f5ffd5b50335f5f6101000a81548173ffffffffffffffffffffffffffffffffffffffff021916908373ffffffffffffffffffffffffffffffffffffffff1602179055506109d18061005b5f395ff3fe608060405260043610610054575f3560e01c80632e1a7d4d146100585780638da5cb5b14610080578063de2ed893146100aa578063e25f8416146100d4578063ed88c68e146100fe578063f8626af814610108575b5f5ffd5b348015610063575f5ffd5b5061007e600480360381019061007991906105c6565b610146565b005b34801561008b575f5ffd5b506100946102ee565b6040516100a19190610630565b60405180910390f35b3480156100b5575f5ffd5b506100be610312565b6040516100cb9190610658565b60405180910390f35b3480156100df575f5ffd5b506100e8610318565b6040516100f59190610777565b60405180910390f35b6101066103dc565b005b348015610113575f5ffd5b5061012e600480360381019061012991906105c6565b61053b565b60405161013d93929190610797565b60405180910390f35b5f5f9054906101000a900473ffffffffffffffffffffffffffffffffffffffff1673ffffffffffffffffffffffffffffffffffffffff163373ffffffffffffffffffffffffffffffffffffffff16146101d4576040517f08c379a00000000000000000000000000000000000000000000000000000000081526004016101cb90610826565b60405180910390fd5b47811115610217576040517f08c379a000000000000000000000000000000000000000000000000000000000815260040161020e9061088e565b60405180910390fd5b5f5f9054906101000a900473ffffffffffffffffffffffffffffffffffffffff1673ffffffffffffffffffffffffffffffffffffffff166108fc8290811502906040515f60405180830381858888f1935050505015801561027a573d5f5f3e3d5ffd5b505f5f9054906101000a900473ffffffffffffffffffffffffffffffffffffffff1673ffffffffffffffffffffffffffffffffffffffff167ffbc3a599b784fe88772fc5abcc07223f64ca0b13acc341f4fb1e46bef0510eb482426040516102e39291906108ac565b60405180910390a250565b5f5f9054906101000a900473ffffffffffffffffffffffffffffffffffffffff1681565b60015481565b60606002805480602002602001604051908101604052809291908181526020015f905b828210156103d3578382905f5260205f2090600302016040518060600160405290815f82015f9054906101000a900473ffffffffffffffffffffffffffffffffffffffff1673ffffffffffffffffffffffffffffffffffffffff1673ffffffffffffffffffffffffffffffffffffffff168152602001600182015481526020016002820154815250508152602001906001019061033b565b50505050905090565b5f341161041e576040517f08c379a00000000000000000000000000000000000000000000000000000000081526004016104159061091d565b60405180910390fd5b600260405180606001604052803373ffffffffffffffffffffffffffffffffffffffff16815260200134815260200142815250908060018154018082558091505060019003905f5260205f2090600302015f909190919091505f820151815f015f6101000a81548173ffffffffffffffffffffffffffffffffffffffff021916908373ffffffffffffffffffffffffffffffffffffffff160217905550602082015181600101556040820151816002015550503460015f8282546104e29190610968565b925050819055503373ffffffffffffffffffffffffffffffffffffffff167f4b0304ab2f313234b1cea012339c8f8c3bf2c8bb357d81a579cfdb35d2e3d03034426040516105319291906108ac565b60405180910390a2565b6002818154811061054a575f80fd5b905f5260205f2090600302015f91509050805f015f9054906101000a900473ffffffffffffffffffffffffffffffffffffffff16908060010154908060020154905083565b5f5ffd5b5f819050919050565b6105a581610593565b81146105af575f5ffd5b50565b5f813590506105c08161059c565b92915050565b5f602082840312156105db576105da61058f565b5b5f6105e8848285016105b2565b91505092915050565b5f73ffffffffffffffffffffffffffffffffffffffff82169050919050565b5f61061a826105f1565b9050919050565b61062a81610610565b82525050565b5f6020820190506106435f830184610621565b92915050565b61065281610593565b82525050565b5f60208201905061066b5f830184610649565b92915050565b5f81519050919050565b5f82825260208201905092915050565b5f819050602082019050919050565b6106a381610610565b82525050565b6106b281610593565b82525050565b606082015f8201516106cc5f85018261069a565b5060208201516106df60208501826106a9565b5060408201516106f260408501826106a9565b50505050565b5f61070383836106b8565b60608301905092915050565b5f602082019050919050565b5f61072582610671565b61072f818561067b565b935061073a8361068b565b805f5b8381101561076a57815161075188826106f8565b975061075c8361070f565b92505060018101905061073d565b5085935050505092915050565b5f6020820190508181035f83015261078f818461071b565b905092915050565b5f6060820190506107aa5f830186610621565b6107b76020830185610649565b6107c46040830184610649565b949350505050565b5f82825260208201905092915050565b7f4f6e6c79206f776e65722063616e2077697468647261770000000000000000005f82015250565b5f6108106017836107cc565b915061081b826107dc565b602082019050919050565b5f6020820190508181035f83015261083d81610804565b9050919050565b7f4e6f7420656e6f7567682066756e6473000000000000000000000000000000005f82015250565b5f6108786010836107cc565b915061088382610844565b602082019050919050565b5f6020820190508181035f8301526108a58161086c565b9050919050565b5f6040820190506108bf5f830185610649565b6108cc6020830184610649565b9392505050565b7f446f6e6174696f6e206d757374206265203e20300000000000000000000000005f82015250565b5f6109076014836107cc565b9150610912826108d3565b602082019050919050565b5f6020820190508181035f830152610934816108fb565b9050919050565b7f4e487b71000000000000000000000000000000000000000000000000000000005f52601160045260245ffd5b5f61097282610593565b915061097d83610593565b92508282019050808211156109955761099461093b565b5b9291505056fea26469706673582212207cffb1f1ee3ba3b9575ba25b96c17f874326f8ce3b4b82eee90249e1cd636a1364736f6c634300081c0033",
  "linkReferences": {},
  "deployedLinkReferences": {},
  "immutableReferences": {},
  "inputSourceName": "project/contracts/CharityTracker.sol",
  "buildInfoId": "solc-0_8_28-d74e650c17305b68fe3f9f1b36540cba77458b21"
}